:100000000C945E000C9486000C9486000C94860080
:100010000C9486000C9486000C9486000C94860048
:100020000C9486000C9486000C9486000C94860038
:100030000C9486000C9486000C9486000C94860028
:100040000C9469030C9486000C9437030C941103F0
:100050000C9486000C9486000C9486000C94860008
:100060000C9486000C9486000000000024002700F9
:100070002A0000000000250028002B0004040404CE
:100080000404040402020202020203030303030342
:10009000010204081020408001020408102001021F
:1000A00004081020000000080002010000030407FB
:1000B00000000000000000007904280B11241FBE7E
:1000C000CFEFD8E0DEBFCDBF11E0A0E0B1E0EAE4C1
:1000D000FCE102C005900D92AA37B107D9F722E0E2
:1000E000AAE7B1E001C01D92AB3FB207E1F710E013
:1000F000CDE5D0E004C02197FE010E940C0CCC3568
:10010000D107C9F70E9431050C94180E0C94000019
:1001100090E0FC01EC55FF4F2491FC01E057FF4FAC
:100120003491FC01E458FF4FE491EE23B1F0222317
:1001300039F02330E9F090F4213001F1223011F14F
:10014000F0E0EE0FFF1FEE58FF4FA591B4918FB76F
:10015000F894EC913E2B3C938FBF08952730A9F083
:100160002830C9F0243061F7809180008F7D03C072
:10017000809180008F7780938000E2CF84B58F7765
:1001800084BDDECF84B58F7DFBCF8091B0008F77AB
:100190008093B000D5CF8091B0008F7DF9CF5E986D
:1001A000569A5D98559A5B98539A089590E0FC0191
:1001B000E057FF4F249184589F4FFC01849188237E
:1001C00099F090E0880F991FFC01E859FF4FA59125
:1001D000B491FC01EE58FF4F859194918FB7F8943C
:1001E000EC91E22BEC938FBF0895442359F05E9A73
:1001F000569A662349F05D9A559A882339F05B9A9E
:10020000539A08955E98F4CF5D98F6CF5B98F8CF37
:10021000AF92BF92CF92DF92EF92FF920F931F9314
:10022000CF93DF936C017B018B01040F151FEB0152
:100230005E01AE18BF08C017D10759F06991D60109
:10024000ED91FC910190F081E02DC6010995892B7B
:1002500079F7C501DF91CF911F910F91FF90EF903A
:10026000DF90CF90BF90AF900895FC01538D448DE7
:10027000252F30E0842F90E0821B930B541710F051
:10028000CF96089501970895FC01918D828D98175E
:1002900061F0A28DAE0FBF2FB11D5D968C91928D36
:1002A0009F5F9F73928F90E008958FEF9FEF089567
:1002B000FC01918D828D981731F0828DE80FF11D30
:1002C000858D90E008958FEF9FEF0895FC01918D4B
:1002D000228D892F90E0805C9F4F821B91098F7344
:1002E0009927089580EA91E00E94660121E0892B18
:1002F00009F420E0822F089580E090E0892B29F016
:100300000E94720181110C9400000895FC01A48DDB
:10031000A80FB92FB11DA35ABF4F2C91848D90E027
:1003200001968F739927848FA689B7892C93A0890A
:10033000B1898C91837080648C93938D848D981394
:1003400006C00288F389E02D80818F7D8083089527
:10035000EF92FF920F931F93CF93DF93EC0181E015
:10036000888F9B8D8C8D98131AC0E889F9898081BC
:1003700085FF15C09FB7F894EE89FF896083E889EF
:10038000F98980818370806480839FBF81E090E0E1
:10039000DF91CF911F910F91FF90EF900895F62E6E
:1003A0000B8D10E00F5F1F4F0F731127E02E8C8D08
:1003B0008E110CC00FB607FCFACFE889F98980814D
:1003C00085FFF5CFCE010E948601F1CFEB8DEC0FBA
:1003D000FD2FF11DE35AFF4FF0829FB7F8940B8F6A
:1003E000EA89FB8980818062CFCFCF93DF93EC01D4
:1003F000888D8823B9F0AA89BB89E889F9898C910D
:1004000085FD03C0808186FD0DC00FB607FCF7CFC8
:100410008C9185FFF2CF808185FFEDCFCE010E94C8
:100420008601E9CFDF91CF9108953FB7F89480918D
:100430007F0190918001A0918101B091820126B548
:10044000A89B05C02F3F19F00196A11DB11D3FBF0C
:10045000BA2FA92F982F8827BC01CD01620F711DDB
:10046000811D911D42E0660F771F881F991F4A95D5
:10047000D1F708952FB7F89460917B0170917C01BA
:1004800080917D0190917E012FBF0895FC01019024
:100490000020E9F73197AF01481B590BBC0180EAF6
:1004A00091E00C9408018F929F92AF92BF920F93AC
:1004B0001F93CF93DF93CDB7DEB7A1970FB6F89414
:1004C000DEBF0FBECDBF19A2423008F44AE08E0154
:1004D0000F5D1F4F842E912CB12CA12CA5019401EE
:1004E0000E947A0BE62FB901CA01EA30F4F4E05D0C
:1004F000D801EE938D01232B242B252B79F790E047
:1005000080E0109719F0CD010E944602A1960FB627
:10051000F894DEBF0FBECDBFDF91CF911F910F9139
:10052000BF90AF909F908F900895E95CE1CFFC0160
:1005300024813581232B39F421E0FB01808188233C
:1005400049F020E007C0808191810E94080E21E0DF
:10055000892BB9F7822F08950F931F93CF93DF93C1
:10056000EC0188819981009759F02A813B812617F7
:10057000370730F081E0DF91CF911F910F910895FF
:100580008B016F5F7F4F0E94370D009759F0998361
:1005900088831B830A832C813D81232B59F7FC011F
:1005A0001082E8CF80E0E7CFCF93DF93EC01888122
:1005B0009981009711F00E94AE0C198218821D8259
:1005C0001C821B821A82DF91CF910895EF92FF92D5
:1005D0000F931F93CF93DF93EC017B018A01BA0144
:1005E0000E94AC0281110BC0CE010E94D402CE0148
:1005F000DF91CF911F910F91FF90EF9008951D8390
:100600000C83B701888199810E94110EF0CFFB0104
:1006100001900020E9F73197AF01461B570B0C946E
:10062000E6021F920F920FB60F9211242F933F9361
:100630004F935F936F937F938F939F93AF93BF93EA
:10064000EF93FF9380EA91E00E948601FF91EF9182
:10065000BF91AF919F918F917F916F915F914F91DA
:100660003F912F910F900FBE0F901F9018951F92E2
:100670000F920FB60F9211242F938F939F93EF93A6
:10068000FF93E091B001F091B1018081E091B6015A
:10069000F091B70182FD1BC090818091B9018F5FFD
:1006A0008F732091BA01821741F0E091B901F0E017
:1006B000E056FE4F958F8093B901FF91EF919F9186
:1006C0008F912F910F900FBE0F901F9018958081E2
:1006D000F4CF1F920F920FB60F9211242F933F93D6
:1006E0008F939F93AF93BF9380917B0190917C01F7
:1006F000A0917D01B0917E0130917A0123E0230F1A
:100700002D3758F50196A11DB11D20937A018093D4
:100710007B0190937C01A0937D01B0937E01809139
:100720007F0190918001A0918101B0918201019699
:10073000A11DB11D80937F0190938001A093810141
:10074000B0938201BF91AF919F918F913F912F9173
:100750000F900FBE0F901F90189526E8230F02965A
:10076000A11DB11DD2CF2A989EBD00000DB407FE79
:10077000FDCF9EB58EBD00000DB407FEFDCF8EB53A
:100780002A9A0895CF93DF93EB0140919D015091F8
:100790009E0121E030E0042E02C0220F331F0A9494
:1007A000E2F7215031098217930708F49C018CE08D
:1007B00090E0841B950B02C0220F331F8A95E2F74D
:1007C00080919401909195018827907F822B932BA3
:1007D00090939501809394010E94B30340919D01F1
:1007E00050919E0181E090E0042E02C0880F991F75
:1007F0000A94E2F70197C817D90708F4CE012CE054
:1008000030E0241B350B02C0880F991F2A95E2F7B0
:1008100020919601309197012227307F822B932BD4
:1008200090939701809396010E94B30380919F015A
:10083000882349F080919B0190919C0197FD03C012
:100840005F9800005F9ADF91CF910895CF92DF9279
:10085000EF92FF920F931F93CF93DF93EC016B0105
:100860007A014617570720F48D2D6A01E62EF82EDF
:10087000198218821B821A821D821C8250E040E07D
:100880006DE471E0CE010E94E602009187021091B2
:100890008802C016D10600F5E016F10608F48701BB
:1008A000E0918302F0918402E00FF11FF08010824A
:1008B00060918302709184026C0D7D1DCE016115E3
:1008C0007105A1F00E940703809183029091840238
:1008D000080F191FF801F082CE01DF91CF911F910F
:1008E0000F91FF90EF90DF90CF9008950E94D40277
:1008F000EBCFE0EAF1E01382128248EE53E060E0D1
:1009000070E044835583668377838EE291E0918320
:10091000808385EC90E09587848784EC90E09787CE
:10092000868780EC90E0918B808B81EC90E0938BBC
:10093000828B82EC90E0958B848B86EC90E0978B99
:10094000868B118E128E138E148EEDE3F2E01682DA
:1009500017821086118612861386148615861686CF
:100960001786108A118A128A138A148A158A84E2D9
:10097000E6E0F1E0AFECB2E001900D928A95E1F78C
:10098000E9E8F2E082E090E09183808380E091E00A
:10099000A0E0B0E082839383A483B583168217829C
:1009A00010861186128613861486158615A616A63D
:1009B00017A610AA11AA12AA13AA14AA1786168695
:1009C00081E090E0A0E0B0E0808B918BA28BB38BB4
:1009D000148A158A168A178A108E118E128E138E1B
:1009E000148E158E168E178E8FEF9FEFDC0180A36D
:1009F00091A3A2A3B3A314A215AA16AA17AA10AE74
:100A000011AE12AE13AE14AE8FEF9FE0A0E0B0E0D7
:100A10008093C6029093C702A093C802B093C90204
:100A20008093CA029093CB02A093CC02B093CD02E4
:100A30001092CE024093F3025093F4026093F502B9
:100A40007093F602E3E8F2E01182108213821282C0
:100A50001582148250E040E06DE471E0CF010C9407
:100A6000E602CF93DF93CDB7DEB7AE970FB6F8941B
:100A7000DEBF0FBECDBF789484B5826084BD84B5DF
:100A8000816084BD85B5826085BD85B5816085BD89
:100A900080916E00816080936E0010928100809141
:100AA00081008260809381008091810081608093C9
:100AB0008100809180008160809380008091B100EE
:100AC00084608093B1008091B00081608093B00019
:100AD00080917A00846080937A0080917A008260AD
:100AE00080937A0080917A00816080937A0080916F
:100AF0007A00806880937A001092C10010927F0281
:100B000010928002109281021092820210923F0293
:100B10001092400210924102109242020E943A0248
:100B20006B017C014B015C0128EB820E2BE0921ED5
:100B3000A11CB11C0E943A026C157D058E059F0513
:100B400028F086169706A806B906A0F70E94150297
:100B50004B015C0180EDC82E87E0D82EE12CF12CF2
:100B60000E941502681979098A099B09683E734039
:100B700081059105A8F331E0C31AD108E108F10815
:100B800048EE840E43E0941EA11CB11CC114D10494
:100B9000E104F10429F7E091B001F091B10182E0A4
:100BA0008083E091AC01F091AD011082E091AE0143
:100BB000F091AF0180E180831092B801E091B4011F
:100BC000F091B50186E08083E091B201F091B3012C
:100BD000808180618083E091B201F091B3018081D6
:100BE00088608083E091B201F091B30180818068D8
:100BF0008083E091B201F091B30180818F7D808389
:100C00000E943A0260933F02709340028093410237
:100C1000909342028CE391E00E9446020E943A02C5
:100C20006B017C014B015C018AE0880E911CA11CC8
:100C3000B11C0E943A026C157D058E059F0528F0B7
:100C400086169706A806B906A0F781E0809353029E
:100C50002CE030E030939E0120939D018093980119
:100C600020E038E03093910120939001309393017C
:100C7000209392012AE030E030939A012093990169
:100C800027E030E030939C0120939B0180939F01EB
:100C900080E090E7909395018093940180E090EF3D
:100CA00090939701809396018AE00E94D6008091EC
:100CB0009B010E94D600809199010E94880080913A
:100CC0009B010E9488001FB7F894809183018111D5
:100CD00023C0E6E8F0E08491EAE9F0E09491E82F9F
:100CE000F0E0EE0FFF1FE859FF4FA591B491EC9192
:100CF000E92319F48AE00E9488008AE00E94D60065
:100D00008CB580618CBD8CB580648CBD8DE00E94FB
:100D1000D6008BE00E94D600809183018F5F809384
:100D200083011FBF8CB58F7D8CBD8CB5837F8CBD3F
:100D30008CB58C7F8CBD8DB581608DBDE091B0018F
:100D4000F091B10182E08083E091AC01F091AD01BE
:100D50001082E091AE01F091AF0181E380831092A7
:100D6000B801E091B401F091B50186E08083E09193
:100D7000B201F091B301808180618083E091B20182
:100D8000F091B301808188608083E091B201F0919D
:100D9000B301808180688083E091B201F091B3015A
:100DA00080818F7D808310E0812F0E94D6001F5F9D
:100DB0001D30D1F70E94CF0082E00E94880080E0C1
:100DC00090E4A0E0B0E08093990290939A02A093FF
:100DD0009B02B0939C0280E098E0A0E0B0E080939A
:100DE0009D0290939E02A0939F02B093A0028093D5
:100DF000A1029093A202A093A302B093A402222482
:100E00002A941FE0312E0E943A02672B682B692B2F
:100E100009F4E5C00E943A0200918C0110918D0105
:100E200020918E0130918F0160177107820793071F
:100E300008F473C100918C0110918D0120918E01F5
:100E400030918F012B013C01401A510A620A730A4A
:100E5000930182010A3F11052105310508F4C7C03D
:100E600060938C0170938D0180938E0190938F011C
:100E7000B4EFCB2EDD24D394E12CF12CC0924B02A5
:100E8000D0924C02E0924D02F0924E0210924F022C
:100E9000109250021092510210925202809143021D
:100EA00090914402A0914502B0914602809347027E
:100EB00090934802A0934902B0934A020E943A02DA
:100EC00060934302709344028093450290934602DC
:100ED0000E943A0260933F02709340028093410265
:100EE000909342020E943A026B017C018EE491E0F1
:100EF0000E9446024AE061E070E080E090E00E94DB
:100F0000530285E591E00E9446024AE0C701B6011E
:100F10000E94530287E591E00E94460280914302BD
:100F200090914402A0914502B0914602A70196011A
:100F3000281B390B4A0B5B0BCA01B9014AE00E941E
:100F4000530287E591E00E9446026091430270914E
:100F5000440280914502909146020091470210910F
:100F600048022091490230914A02601B710B820BAA
:100F7000930B4AE00E94530289E591E00E944602E9
:100F80000E943A024AE00E9453028BE591E00E94DF
:100F900046028BE491E00E9446020E943A024B0115
:100FA0005C017C016B0132E0C30ED11CE11CF11C21
:100FB0000E943A02681579058A059B0528F0C61635
:100FC000D706E806F906A0F70E943A0260934302AA
:100FD00070934402809345029093460208C00E9499
:100FE0003A02623071058105910508F013CF0E9425
:100FF0003A026BA37CA38DA39EA380EA91E00E949A
:101000006601181619060CF061C080EA91E00E9492
:101010004401182F883219F481E080938B0180916C
:101020008B01882309F48CC0183209F443C01932AB
:1010300009F489C01A8219821C821B821E821D82B9
:1010400060918302709184026115710541F04091B5
:10105000870250918802CE0101960E94E6021F830A
:1010600018860D811E810F5F1F4FB801CE010196BA
:101070000E94AC02882309F459C029813A818D81EC
:101080009E81BE01695F7F4F820F931F0E94110EE8
:101090001E830D8369817A816115710509F44BC046
:1010A0004D815E8183E892E00E94E60289819A8107
:1010B0000E94AE0C4BA05CA06DA07EA0409284016B
:1010C000509285016092860170928701809184011F
:1010D00090918501A0918601B0918701CBA0DCA001
:1010E000EDA0FEA0C81AD90AEA0AFB0AD701C60178
:1010F0004A97A105B10510F00E94CF0080E0E82ECC
:1011000080E0F82EEF2809F47ECE0E947201882339
:1011100009F479CE0E94000076CE60938C01709322
:101120008D0180938E0190938F0184CECE01019624
:101130000E94D402AFCF83E892E00E94D402B6CFDF
:10114000193209F0B7CF10928B0162E671E083E8A3
:1011500092E00E949702882349F00E94CF001092EB
:101160008A01109289011092880112C066E671E02E
:1011700083E892E00E949702882389F040918801D9
:101180006091890181E00E94F50081E080938A01ED
:101190006DE471E083E892E00E9407038BCF69E67B
:1011A00071E083E892E00E949702882391F0109109
:1011B000880100918901412F602F80E00E94F50095
:1011C00010928A010111E4CF1111E2CF0E94CF00E9
:1011D000DFCF6CE671E083E892E00E9497028823FB
:1011E00059F04091880161E080918A010E94F500E8
:1011F00081E080938901CCCF6FE671E083E892E0D3
:101200000E949702882361F01091880100918A0161
:10121000412F60E0802F0E94F50010928901D2CF0B
:1012200062E771E083E892E00E949702882359F018
:1012300041E06091890180918A010E94F50081E07E
:1012400080938801A5CF65E771E083E892E00E9472
:101250009702882341F040E06091890180918A01E2
:101260000E94F50080CF8091870290918802892B9F
:10127000D9F0C0908302D09084026CE270E0C60185
:101280000E94FD0D8C010C191D09892B11F40FEF23
:101290001FEF6AE370E0C6010E94FD0D7C01EC18AF
:1012A000FD08892B31F402C00FEF1FEFEE24EA9402
:1012B000FE2C1127A80170E060E0CE010D960E947F
:1012C0002604FF24B8016F5F7F4FA701CE01079668
:1012D0000E9426044091870250918802B7016F5FF7
:1012E0007F4FCE0101960E9426046DE471E083E8F1
:1012F00092E00E94070368E771E0CE010D960E941C
:101300009702882309F497C189819A81C12CD12C35
:101310007601009721F00E942E0B6B017C018F81DA
:101320009885009709F464C10E942E0B8090990261
:1013300090909A02A0909B02B0909C02A50194010B
:101340000E946A0B705E8F4F9F4FEEE095958795D8
:1013500077956795EA95D1F700919D0210919E02CD
:1013600020919F023091A0022B013C01400E511EA2
:10137000621E731E4B8E5C8E6D8E7E8E9401C70135
:10138000B6010E946A0B705E8F4F9F4FFEE09595ED
:10139000879577956795FA95D1F70091A1021091FD
:1013A000A2022091A3023091A4026B017C01C00E25
:1013B000D11EE21EF31ECF8ED8A2E9A2FAA280911E
:1013C0008F0290919002A0919102B09192027301CC
:1013D0006201C81AD90AEA0AFB0A80919302909125
:1013E0009402A0919502B09196024F8C58A069A0EA
:1013F0007AA0481A590A6A0A7B0A46015701F7FE81
:1014000007C08824992454018C189D08AE08BF0891
:1014100020918B0230918C0240918D0250918E026E
:101420002B8B3C8B4D8B5E8BA50194016B897C894A
:101430008D899E890E946A0B705E8F4F9F4F9B0122
:10144000AC017EE055954795379527957A95D1F76C
:101450002F8B388F498F5A8FC301B20177FE07C097
:1014600066277727CB016419750986099709860EC7
:10147000971EA81EB91E0091A5021091A6022091E8
:10148000A7023091A802800E911EA21EB31E809268
:10149000A5029092A602A092A702B092A8022B8960
:1014A0003C894D895E890E946A0B4B015C0130E2E8
:1014B000930EA11CB11C6EE0B594A79497948794E9
:1014C0006A95D1F78F89988DA98DBA8D881699065E
:1014D000AA06BB0614F44C015D01C701B6014EE03B
:1014E000660F771F881F991F4A95D1F7A5019401B0
:1014F0000E949C0B2F8B388F498F5A8FC301B201EA
:101500005EE0660F771F881F991F5A95D1F7A501D6
:1015100094010E949C0B2FA338A749A75AA7305EBD
:101520004F4F5F4F2B8B3C8B4D8B5E8BCF88D88C76
:10153000E98CFA8C90E2D90EE11CF11C412C512C63
:101540003201A501940121503109410951092BA70C
:101550003CA74DA75EA78BA59CA5ADA5BEA548162B
:1015600059066A067B060CF047C0D701C6012EE07B
:10157000B595A795979587952A95D1F720918F02D4
:1015800030919002820F931FB101681B790B8B89F8
:101590009C89AD89BE893EE0B595A79597958795BD
:1015A0003A95D1F72091930230919402820F931FC4
:1015B0000E94C2039FEF491A590A690A790A2B89C6
:1015C0003C894D895E898FA198A5A9A5BAA5280F48
:1015D000391F4A1F5B1F2B8B3C8B4D8B5E8B2F89DA
:1015E000388D498D5A8DC20ED31EE41EF51EB3CF21
:1015F00060E070E0CB019ACE4B8C5C8C6D8C7E8C65
:1016000040928F02509290026092910270929202E8
:10161000CF8CD8A0E9A0FAA0C0929302D0929402F5
:10162000E0929502F0929602B101641975098F8DCE
:1016300098A10E94C20389819A810E94AE0C8F8179
:1016400098850E94AE0C8D859E850E94AE0CA0CD23
:1016500080918302909184020C94AE0C1F93FC0144
:1016600099278827BC01E89411911032E9F31930C9
:1016700010F01E30C8F31B3251F01D3249F468944B
:1016800006C00E94550B610F711D811D911D1191A6
:1016900010531A30B0F33EF4909580957095619593
:1016A0007F4F8F4F9F4F1F910895592F482F372FEE
:1016B000262F660F771F881F991F660F771F881FB9
:1016C000991F620F731F841F951F660F771F881F56
:1016D000991F0895DB018F939F930E94BB0BBF91CD
:1016E000AF91A29F800D911DA39F900DB29F900D71
:1016F00011240895A1E21A2EAA1BBB1BFD010DC0E7
:10170000AA1FBB1FEE1FFF1FA217B307E407F507B1
:1017100020F0A21BB30BE40BF50B661F771F881F8D
:10172000991F1A9469F760957095809590959B0123
:10173000AC01BD01CF010895052E97FB1EF4009466
:101740000E94B30B57FD07D00E947A0B07FC03D011
:101750004EF40C94B30B50954095309521953F4F26
:101760004F4F5F4F089590958095709561957F4F8D
:101770008F4F9F4F08950E94FD0BA59F900DB49F22
:10178000900DA49F800D911D112408952F923F92DA
:101790004F925F926F927F928F929F92AF92BF9281
:1017A000CF92DF92EF92FF920F931F93CF93DF932D
:1017B000CDB7DEB7CA1BDB0B0FB6F894DEBF0FBE8A
:1017C000CDBF09942A88398848885F846E847D84D7
:1017D0008C849B84AA84B984C884DF80EE80FD80D9
:1017E0000C811B81AA81B981CE0FD11D0FB6F8944F
:1017F000DEBF0FBECDBFED010895A29FB001B39F24
:10180000C001A39F700D811D1124911DB29F700D09
:10181000811D1124911D0895EE0FFF1F0590F49175
:10182000E02D09940F931F93CF93DF93823091059E
:1018300010F482E090E0E091F902F091FA0230E0D9
:1018400020E0B0E0A0E0309799F42115310509F4CB
:101850004AC0281B390B24303105D8F58A819B8179
:101860006115710589F1FB0193838283FE0111C02B
:10187000408151810281138148175907E0F04817D0
:10188000590799F4109761F012960C9312971396DA
:101890001C933296CF01DF91CF911F910F91089544
:1018A0000093F9021093FA02F4CF2115310551F09B
:1018B0004217530738F0A901DB019A01BD01DF018E
:1018C000F801C1CFEF01F9CF9093FA028093F902AA
:1018D000CDCFFE01E20FF31F819391932250310986
:1018E00039832883D7CF2091F7023091F802232B38
:1018F00041F420910201309103013093F8022093CA
:10190000F70220910001309101012115310541F4C8
:101910002DB73EB74091040150910501241B350BB2
:10192000E091F702F091F802E217F307A0F42E1B02
:101930003F0B2817390778F0AC014E5F5F4F241733
:10194000350748F04E0F5F1F5093F8024093F7029F
:10195000819391939FCFF0E0E0E09CCFCF93DF9312
:101960000097E9F0FC01329713821282A091F902EC
:10197000B091FA02ED0130E020E01097A1F420814F
:101980003181820F931F2091F7023091F8022817BE
:10199000390709F061C0F093F802E093F702DF9194
:1019A000CF910895EA01CE17DF07E8F54A815B8100
:1019B0009E0141155105B1F7E901FB83EA83499185
:1019C0005991C40FD51FEC17FD0761F480819181F7
:1019D0000296840F951FE901998388838281938100
:1019E0009B838A83F0E0E0E012968D919C9113979F
:1019F0000097B9F52D913C911197CD010296820F78
:101A0000931F2091F7023091F8022817390739F611
:101A1000309751F51092FA021092F902B093F80241
:101A2000A093F702BCCFD383C28340815181840F3E
:101A3000951FC817D90761F44E5F5F4F8881998160
:101A4000480F591F518340838A819B8193838283EE
:101A50002115310509F0B0CFF093FA02E093F902B5
:101A60009ECFFD01DC01C0CF13821282D7CFB0E040
:101A7000A0E0EDE3FDE00C94C80B8C01009751F45D
:101A8000CB010E94120C8C01C801CDB7DEB7E0E19A
:101A90000C94E40BFC01E60FF71F9C012250310966
:101AA000E217F30708F49DC0D901CD91DC9111979D
:101AB000C617D70798F0C530D10530F3CE0104978B
:101AC0008617970708F3C61BD70B2297C193D193AC
:101AD0006D937C93CF010E94AE0CD6CF5B01AC1A04
:101AE000BD0A4C018C0E9D1EA091F902B091FA0224
:101AF000512C412CF12CE12C109731F58091F702FB
:101B00009091F8028815990509F05CC046165706B1
:101B100008F058C08091000190910101009741F4B4
:101B20008DB79EB74091040150910501841B950B20
:101B3000E817F90708F055C0F093F802E093F702B0
:101B4000F90171836083A0CF8D919C9111971296BA
:101B50006C90129713967C901397A815B90559F5B8
:101B60006C0142E0C40ED11CCA14DB0420F1AC01AC
:101B70004A195B09DA011296159780F06282738226
:101B800051834083D9016D937C93E114F10471F08A
:101B9000D7011396FC93EE93129776CF22968C0F73
:101BA0009D1FF90191838083F301EFCFF093FA0237
:101BB000E093F90269CF4816590608F42C017D011B
:101BC000D3019ACFCB010E94120C7C01009749F0FF
:101BD000AE01B8010E94F40DC8010E94AE0C87014D
:101BE00053CF10E000E050CFFB01DC0102C00190B8
:101BF0000D9241505040D8F70895FC01819186170D
:101C000021F08823D9F7992708953197CF010895B6
:101C1000FB01DC018D91019080190110D9F3990B22
:101C20000895FB01DC0101900D920020E1F7089579
:101C300010E0CDE5D0E004C0FE010E940C0C21961E
:0A1C4000CE35D107C9F7F894FFCFA5
:101C4A000000FB02800000400000000000000000CD
:101C5A00000000000000004000000000000000003A
:101C6A000000000000000040000000000000A80181
:101C7A0008013501F501660144015801564D4450E9
:101C8A00565F317C315F564D4450560D0A00564D11
:101C9A004450455F003A323A007C005F564D44504A
:101CAA0045006F6666007231007230006731006766
:0A1CBA0030006231006230006C005F
:107E0000112484B714BE81FFF0D085E080938100F7
:107E100082E08093C00088E18093C10086E0809377
:107E2000C20080E18093C4008EE0C9D0259A86E02C
:107E300020E33CEF91E0309385002093840096BBD3
:107E4000B09BFECF1D9AA8958150A9F7CC24DD24C4
:107E500088248394B5E0AB2EA1E19A2EF3E0BF2EE7
:107E6000A2D0813461F49FD0082FAFD0023811F036
:107E7000013811F484E001C083E08DD089C08234E0
:107E800011F484E103C0853419F485E0A6D080C0E4
:107E9000853579F488D0E82EFF2485D0082F10E0AE
:107EA000102F00270E291F29000F111F8ED06801E7
:107EB0006FC0863521F484E090D080E0DECF843638
:107EC00009F040C070D06FD0082F6DD080E0C81688
:107ED00080E7D80618F4F601B7BEE895C0E0D1E017
:107EE00062D089930C17E1F7F0E0CF16F0E7DF06D8
:107EF00018F0F601B7BEE89568D007B600FCFDCFD4
:107F0000A601A0E0B1E02C9130E011968C91119780
:107F100090E0982F8827822B932B1296FA010C0160
:107F200087BEE89511244E5F5F4FF1E0A038BF0790
:107F300051F7F601A7BEE89507B600FCFDCF97BE46
:107F4000E89526C08437B1F42ED02DD0F82E2BD052
:107F50003CD0F601EF2C8F010F5F1F4F84911BD097
:107F6000EA94F801C1F70894C11CD11CFA94CF0C13
:107F7000D11C0EC0853739F428D08EE10CD085E9AC
:107F80000AD08FE07ACF813511F488E018D01DD067
:107F900080E101D065CF982F8091C00085FFFCCF94
:107FA0009093C60008958091C00087FFFCCF809118
:107FB000C00084FD01C0A8958091C6000895E0E648
:107FC000F0E098E1908380830895EDDF803219F02E
:107FD00088E0F5DFFFCF84E1DECF1F93182FE3DFCA
:107FE0001150E9F7F2DF1F91089580E0E8DFEE27F6
:047FF000FF270994CA
:027FFE00040479
:0400000300007E007B
:00000001FF